:0200000480007A
:2000200000A03CFF4E414E000F05D011174580010B00D0010F00B02142218B0101110F204A
:2000400010006B05002000906E616E00494E4600696E6600000600F000AE03F00100000081
:2000600000000000000600F000AF03F00300000001000000000600F000AE03F0000000004D
:2000800090000000000600F000AE03F00100000090000000000600F000AF03F0020000000E
:2000A00090000000000600F000AF03F00300000090000000000700F000AF03F001000000EB
:2000C00000000000000700F000AF03F00500000001000000000700F000B403F009000000DA
:1800E00002000000000700F000AE03F008000000030000000000000063
:20010000910000F8D9FF3A410D00000202F4DC0F0000000000000000000000000000000013
:20012000910000F8D9FF36310D00000202F4DC0F0000000000000000000000000000000007
:20014000910000F8D9FF32210D00000202F4DC0F00000000000000000000000000000000FB
:20016000910000F8D9FF2E110D00000202F4DC0F00000000000000000000000000000000EF
:20018000910000F8D9FF2A010D00000202F4DC0F00000000000000000000000000000000E3
:2001A000910000F8D9FFE6F00D00000202F4DC0F0000000000000000000000000000000018
:2001C000910000F8D9FF00710D00000202F4DC0F000000000000000000000000000000005D
:2001E000910000F8D9FF3E510D00000202F4DC0F009000000000000000000000000000008F
:20020000820C822D3C130757FFCF8755BFDFCE57460546048B1480408B05A050CE77460781
:2002200046068B1680608B07A07082028203820082013A260B2700F26E023C4F0B6430F132
:200240000B7500F20B75A0F26E04024002513C453A640B7500F26E0382123C3F3B0004E0E3
:200260000B6030F10B7100F20B71A0F2DE1087559FFF06116701801F8B1FE00602480259BB
:2002800006156745805F0614C2FE3CEB0284029506F067101F0006F1C21E82087AE86E1DC0
:2002A00087559FFF06116701801F8B1FE0060B60C0A00B71D0B007BB9FFF06156745805F49
:2002C000061406136723803F8B1FE0266E0302A002B1C2183FE8E67F76C7460346028B125B
:2002E00080208B03A030DF2D0B00071DE0FF76F7460146008B1080008B01A01000903B00CA
:20030000034040F440C5007074DF3B00034040C4007061000E00370A6800DA0A4BF0110262
:200320000070610006003BE0024040C4007054DFC21F74DF0070404F6D00FD0F022F02F40F
:200340006D00F90E14F0B700010034F002F46D0012100090DA0C7FF40B00538420F0910058
:2003600000F8D9FF882510FFD4F23C02A0023C0100902010094F4C18161F3C0182003E0759
:2003800082203E0782405F0F28003C2982023C298202910000F8D9FF88D549FF000A49A251
:2003A000000AA0F404FF242FFC4E913000FF39FF0016160F6E0F82246D002409913000FF4F
:2003C00039FF0016160F10AF14FF4B0F61F14BF251203C013C066D00CB073C0382023C01C0
:2003E0003C01009082F282003C17538020F0910000F8D9FF882510FFD4FF7D4F0D805380E8
:2004000020F0910000F8D9FF882510FF481F370F48203C04C210BFC0EAFF3C010090404FC4
:2004200040F46DFFA8FF09FFD408370F6CF0C21F4B0F41F14BF251203C0100906DFFD4FFC8
:2004400053C220F060FF9140003F30F3D93F101849F2080A3C0100906DFFC6FF53C220F035
:2004600060FF9140003F30F3D9321018B0423C0100906DFFB9FF53C220F060FF9140003F40
:2004800030F3D93210183C010090494F081A3C0554FF345FB015C2F4FF14FCFF02423C014E
:2004A00000902010404F0B541088026A89A7080909FF4C18161F78033C0140F46DFFB1FFA0
:2004C000C2188B4860F3370F68F074AF8B1A60F3370F68F0780154AF4B0F61F14BF94150C8
:2004E0003BF026F19B3FA8F34BF5413082044B5251004B00716182108F461FF06E0D7B0097
:2005000018144B1941104B1251104B0171118F411FF06E023C010269821882074B006101A7
:200520004B0241F04B0661014B0F51006B0031F582014B1F01F0AE046B0031B53C056B00C1
:2005400031F567FFBFBF4B3B01F016038B0F20F26E028214822D3C39DF2D05808210821E68
:200560003C0773D70A004B8011028B1000E03C234B0D61A14BA241A0036D0AC04B0C61F121
:200580004BFA51C06B0C31F5820A4BAF01F0AE046B0C31A53C056B0C31F567FFBFAF4BAB4A
:2005A00001F0370F61F16E0602AB02D8036D0A900207C2107F0EDEFF4B3B01F016038B0F3E
:2005C00020F26E023C09C21DF647736D0AF03BF0FF007FF0C3FF820440F46D00360009FF9E
:2005E000E00837097000370F0CF089FFA00809FFE20837087000370F0CF089FFA20809F0E3
:20060000560854AFC2FF370F68F037F004F089FF160809F05708580137F004F089FF1708E6
:2006200058026E03DA013C02DA0009F0570837F081F389FF170840F409A40C096D000500FA
:2006400082123C010090094F4C18374F05F0894F0C18F6493C01094F4F18370FE1F33C0174
:20066000EEFB3C093C01094F4F18370FE1F33C01DF1FFBFF0090494F041A3C05145F74FF94
:20068000B015C2F4FF14FCFF02423C0100902008404FDA01B4AF3C0149A5020A49A6000A9B
:2006A00091000028D922F8450924400940F46D00F903DF12F3FF09A242083C010090CC4283
:2006C00088223C013C0100902008F4A4405DD4DFF44F40F46DFF31FE820440F46DFFB5FF6A
:2006E000DA0009F05A0837F002F089FF1A0809DFC80809F0D408C2FF370F70F037F00CF0EB
:20070000ACFA09D46C0840F46DFF9FFF09D4040909D54A0809D64D0809D74C0840F46DFF82
:20072000C2FE0228820440F46DFF8FFF09DF7C086E0382103C028200087F370F01F22CF709
:2007400009DF56086E03DA013C02DA0009F05B0837F001F389FF1B0809DF540809F05B082D
:2007600037F081F389FF1B0809DF510809F0590837F083F089FF190809DF530809F05B08B6
:2007800037F001F289FF1B0809DF550809F05C0837F004F089FF1C0809D0580808CF370FD5
:2007A00002F32CFC09DF590809F0500837F002F389FF100809DF500809F0D80837F003F390
:2007C000ACFC09D05A0808DF8BF0200337006800370F04F02CFD09DF5B0809F051088BFF88
:2007E00020F3370F68F037F004F089FF110809D05D0808CF370F02F22CFC09DF5E0809F0CE
:20080000500837F002F289FF100809DF520809F05A0837F002F089FF1A0809DCA809BD0C06
:200820007900D4CEBD0E280009C0040809C95D084CE16E2109E4840909E44808370068503C
:200840006D00E10409E4840909E4480802956D000C05D4E2DA016E0382103C0282000C27F3
:20086000370F81F22C27D4E20CEC0920460837F002F02C2609CE8809BD0E1E0009C00C08AE
:2008800009C95D084CE16E1709E4840909E44808370068506D00B70409E4840909E44808EA
:2008A00002956D00E204D4E20CEC0920440837F003F02C2409CE9009BD0E150009C5540847
:2008C00009C95D0809E4840909E448080CECA6F56D00990409E4840909E4480802956D00D2
:2008E000C40409CE9809BD0E150009C55C0809C95D0809E4840909E448080CECA6F56D00B8
:20090000820409E4840909E4480802956D00AD0409D46C0840F46DFF98FEDA0089FF0019E3
:2009200082FF6CFFDA00D4A22C2E09DF6D082E0CDA016E03DA013C02DA0009F0421837F0D1
:2009400001F089FF021809DF6D082E1CDA016E03DA013C02DA0009F0421837F001F189FF2A
:20096000021809DF6D082E2CDA016E03DA013C02DA0009F0431837F001F189FF031809DF6F
:200980006D082E3CDA016E03DA013C02DA0009F0431837F081F189FF031809DF6D082E4CD2
:2009A000DA016E03DA013C02DA0009F0431837F001F389FF0318DA002C2DDA002C2C09DF99
:2009C0007D082C2FD20089205409DA006C240C2F82003E0482103E043C0682193C063BC008
:2009E00000903C0382093C014CDC6E0C09D4B00909D4AE0802956D008C0ED4A48942840927
:200A00003C0909D4AE0802956D00410ED4A4894284094CDE6E0C09D4B80909D4B408029569
:200A20006D00770ED4A4894288093C0909D4B40802956D002C0ED4A48942880909D96608B0
:200A400009DFE208EE03DF19228040F46DFF06FD09DFE2081420370F68F037F008F0342F70
:200A60000C21379F83F12C210C2396022C23DA016E03DA013C02DA0009F0431837F001F2EF
:200A800089FF03180C2196042C2109DFE008EE03DF19228040F46DFFEEFC09DFE0081420B6
:200AA000370F68F037F008F0342F0C21379F83F12C210C2396022C23DA016E03DA013C02D7
:200AC000DA0009F0431837F081F389FF03180C2196042C2109DFE4086E2140F46DFFB0FCE7
:200AE00009DFE4081420370F68F037F008F0342F0C21379F83F12C210C2396022C23DA0119
:200B00006E03DA013C02DA0009F0421837F001F089FF02180C2196042C21DA016E03DA0129
:200B20003C02DA0009F0500837F081F089FF1008DA016E0382103C02820008CF370F81F0E8
:200B40002CFC09FF5008960189FF100808CF96012CFC02823C010090F445DA00894F3C08C0
:200B6000DA02894F2C08DA01AC447B107EF46C41DA032C4ADA002C4CDA032C4DDA00894F6B
:200B80001008DA01894F1108DA01894F1208DA00894F1308DA00894F1608DA00894F140839
:200BA000DA07894F1508DA01894F1808DA01894F1908DA00894F1A08DA00894F1B08DA0035
:200BC000894F1C08DA00894F1D08DA00894F1E08DA00894FA208DA00894FA008DA00894F02
:200BE000A408DA00894F2608DAFF894F2D08A00FEC4AA00FEC4EA00FEC4CDA00894FAE0866
:200C0000DA00894FB408DA00894F3D0800902010404F08CFEE2BC8128C223C016E03DA0020
:200C20003C02DA013C01EE22DA012CFC08FF82003E0482103E0A3C14C81449A5000A8214EC
:200C4000D2066D008B0D3C0CC81449A5040A3BC00040D2066D00820D0CAC34AF3C01D4F4E8
:200C600049A5000A82146DFF08FD0090D44F09FF760816013C016E0909FF7E08960189FFC4
:200C80003E080C4E96012C4E09FF7608370F61F13C016E0909FF7E08960489FF3E080C4E81
:200CA00096022C4E09FF7708370F61F13C016E0909FF7F08960489FF3F080C4E96042C4EE9
:200CC00009FF7708370FE1F13C016E0909FF7F08960889FF3F080C4E96082C4E09FF7708CC
:200CE000370F61F33C016E0909FF7F08964089FF3F080C4E96102C4E00902020404F08FF92
:200D000082003E048210BE083C57D4F2092F5208161F3C01D4F449A5000A02F46DFFB7FB86
:200D2000C82449A5000AD20602F46D001D0E7623DA012CFD3C413C394DC0E2FF370FE1F7CE
:200D40008B0F20F23C010D00400300003C013C0185F010018203020285F12C018200A620E6
:200D6000A6313C0191000028D922F84509224009262026316E030D0000033C0189A050091D
:200D8000D4F449A5000A82146DFF81FB14AF89AF1808C82449A5100A3BC00040D2066D0086
:200DA000E30D7623DA012CFDD4F2092F5208161F3C01EEC33C0100902018404F4DC0E2FFA9
:200DC000370FE1F78B0F20F23C010D00400300003C013C0185F010018203020285F12C0190
:200DE0008200A620A6313C0191000028D922F84509224009262026316E030D0000033C01D7
:200E000089F05409484FC21F6CF4C8128C223C016E03DA003C02DA013C01EE4008FF820007
:200E20003E0582105F0F29003C38DA0089AF1008C8128C223C01370F7000D4F20C2E161FF8
:200E40003C0189AF100809AF50088B0F01F1370F70F07FF00380020FC81449A5000A370FA6
:200E60005040D2066D007A0CD4F449A5000A02F46DFF03FC3C12C81449A5000A3BC0004099
:200E8000D2066D006B0C0CA82CACD4F449A50C0A82146DFFF2FB3C013C03DA002CFC009041
:200EA000406F0B4510680944880994F46D00560C94FFA22FB4FF8B0200223C010090404F64
:200EC000405C406D0B451088821208CFC81209209408370070A094D0DF003100EE1F94DF9C
:200EE0007FFA1D00C814370A504040C50B8910686D003A0D40F46DFF8CFEC81401CA0056C3
:200F000094DFA2AF370F50400B8910686D002C0D022840F46DFF7DFE3C0CC81494D440C5AF
:200F20000B8910686D00200D022840F46DFF71FE94DFA28FB4DF8B0800223C010090FF24F6
:200F40000B00538420F0910000F8D9FFA83510FFD4F23C02A0023C0100904DC0E1FFD7100B
:200F6000210F4940400800900248804FB70F1CF07B00000D7E0D804FB70F0CFAB77F03FE10
:200F80004DC0E10F7B000011E210A20F3C02804F60FF820982046D0035039130002F392FAB
:200FA0003006160F4B0F41F14BF251F03C017BA047044B0F51F04B0861014B0F41F04B0FF4
:200FC000710185F110013C09000085FF1001A21F3F0F048082193C0554FF1607DF7FF6FF0C
:200FE00002923C010090200840BF3C0180F2370368F4B75F08F037F30834370468F037F3F3
:2010000008304DC0E1FF16073C013703680837F003F037F308383C0189A2400909A0400980
:2010200000A00D00400200800090200840BF3C0180F2370368F4B74F08F037F308343704A6
:2010400068F037F308304DC0E1FF16073C013703680837F003F037F308383C0189A24009B0
:2010600009A0400900A00D00400200800090200840BF3C0180F2370368F4B73F08F037F3FB
:201080000834370468F037F308304DC0E1FF16073C013703680837F003F037F308383C016D
:2010A00089A2400909A0400900A00D00400200800090200840BF3C0180F2370368F4B72F79
:2010C00008F037F30834370468F037F308304DC0E1FF16073C013703680837F003F037F388
:2010E00008383C0189A2400909A0400900A00D00400200800090200840BF3C0180F23703FE
:2011000068F4B71F08F037F30834370468F037F308304DC0E1FF16073C013703680837F032
:2011200003F037F308383C0189A2400909A0400900A00D00400200800090200840BF3C014C
:2011400080F2370368F4B70F08F037F30834370468F037F308304DC0E1FF16073C013703ED
:20116000680837F003F037F308383C0189A2400909A0400900A00D004002008000902008B1
:2011800040BF3C0180F2370368F4B77F08F037F30834370468F037F308304DC0E1FF160778
:2011A0003C013703680837F003F037F308383C0189A2400909A040090D00400200800090C2
:2011C000200840BF3C0180F2370368F4B76F08F037F30834370468F037F308304DC0E1FF3D
:2011E00016073C013703680837F003F037F308383C0189A2400909A040090D0040020080F5
:201200000090404F0B4510A849FC100A82404B0A01828F3A00F1538F20C09140002FD92237
:20122000800C7D2F15806D008608022F02F46D00820709F0201982110FA1101082F2C621D9
:20124000261089F0201902F46D009508534820F010CFDAFF0FCF00F00FCB10B002F302B232
:2012600049F240080090404F0B4510886D006308022A02A46D005F0749FF001ADA084BF8E0
:2012800001028F7800F1534F2040534020F010FFDA0F0F4F00F00F49109002F3029249F2AC
:2012A000400802A46D0067080090534420F0910000F8D9FF98D510FF54F1404CB04C9130C2
:2012C00000FFD9FF00069130002F392F1B06370F62F3EE06BB00C2FB9BEFCBF43C1A913051
:2012E000002F392F1B06370F62F35E16BB0068F99B8FB9F43C0E9130002F392F1B06370F2B
:2013000062F35E26BB0068F99B8FB9F43C02DA003C0109F059083700E700C2104B004101D5
:201320004B0F410009FF5B081607C21F4B0F41F14BF051F07B802C044B0151007B0000144A
:201340004B104100BB00A01B9BB1A5144B1F51F04BF041F0744F544F7B0020047B00F013DC
:201360006B0F61416D00030EB4C2009020108208910000F8D9FF88D549FF000A49A2000A0E
:20138000A0F404FF242FFC4E913000FF39FF0116370F62F282103E048220BE073C1C821447
:2013A0006D003001913000FF39FF0116160F6E0C913000FF39FF0116160F10AF14FF4B0F81
:2013C00061F14BF251803C08BB0068899B88B9843C013C023C0102823C01009002486D009D
:2013E0008A018200DA003E86DA013E89DA023E8C3C10913000FF19F000263C0D913000FFB6
:2014000019F004263C08913000FF19F008263C0382023C01760B8B0004F14B0F61F17B0036
:2014200028044B0F51F04BF241203C010090913000FFD9FF00069130002F392F1B06370F1D
:2014400062F3EE06BB00C2FB9BEFCBF43C1A9130002F392F1B06370F62F35E16BB0068F988
:201460009B8FB9F43C0E9130002F392F1B06370F62F35E26BB0068F99B8FB9F43C02DA00A8
:201480003C0109F069083700E700C2104B0041014B0F411009FF6B081607921009FF6C08C7
:2014A0001607C21FE2F04B0041F14BF151203C010090913000FFD9FF00069130002F392F6F
:2014C0001B06370F62F3EE06BB00C2FB9BEFCBF43C1A9130002F392F1B06370F62F35E16BD
:2014E000BB0068F99B8FB9F43C0E9130002F392F1B06370F62F35E26BB0068F99B8FB9F424
:201500003C02DA003C0109F068086F001F8009F069083700E700C2104B0041014B0F41106D
:2015200009FF6B081607921009FF6D081607C21FE2F04B0041F1BBD0CC0C9BC0FC034B0F90
:2015400041F04BF151203C1909F069083700E700C2104B0041014B0F411009FF6B0816072E
:20156000921009FF6D081607C21FE2F0532020F04B0F41F14BF151203C010090913000FF33
:20158000D9FF00069130002F392F1B06370F62F3EE06BB00C2FB9BEFCBF43C1A9130002F5E
:2015A000392F1B06370F62F35E16BB0068F99B8FB9F43C0E9130002F392F1B06370F62F342
:2015C0005E26BB0068F99B8FB9F43C02DA003C0109F059083700E700C2104B0041014B0F0E
:2015E000411009FF5C081607921009FF5B081607C21FE2F04B0041F14BF151203C0100903D
:20160000913000FF39FF3306370F62F282003E0482103E083C23BB00C22B9BE2CB243C01B3
:201620003C1FDA003E46DA013E47DA02BE413C136DFFA6FF3C126DFFFCFE913000FF39FFAA
:201640003406AE757B0000F44BF251203C066DFF32FF3C0382023C013C0382023C013C01F4
:20166000009082046DFFCEFF913000FF39FF3106370F6302DA003E0EDA015F0F2400DA02D2
:201680005F0F2600DA035F0F2800DA045F0F2A003C2D913000FF39FF3206160F6E079130D9
:2016A00000FF39FF3206160F5E1382023C0A913000FF39FF3206160F4B0F41F14BF25120CC
:2016C0003C177B001FF44BF251203C127B0027F44BF251203C0D7B002FF44BF251203C0810
:2016E0007B0037F44BF251203C0382023C013C01009082046DFF86FF913000FF39FF310623
:20170000370F6302DA003E0CDA01BE0CDA02BE0FDA035F0F2200DA045F0F24003C279130AB
:2017200000FF39FF3106160FEE0382023C0A913000FF39FF3106160F4B0F41F14BF25120CD
:201740003C177B001FF44BF251203C127B0027F44BF251203C0D7B002FF44BF251203C088F
:201760007B0037F44BF251203C0382023C013C010090404F82029130002FD92228A6542FF9
:20178000370F6EF18FFF83113C019130002F192F28A66F1F12008F2120F096019130002F58
:2017A000192028A6370070088F002100A60F9130002F592F28A68F2120F096029130002F80
:2017C000192028A6370070088F002100A60F9130002F592F28A63C019130002F192F28A665
:2017E0001601DF1FFB7F3B0000013C05C2F04E0382123C089130002F392F3306370FE1F357
:20180000EEF69130002F192F30068200370F02FE8210370F01FF9130002F592F30063B00ED
:2018200000013C05C2F04E0382123C089130002F392F3306370FE1F3EEF6DABC9130002F76
:20184000592FB4069130002F192FA0563B20FE0F260F9130002F592FA0569130002F192FD5
:20186000A4563B20FE0F260F9130002F592FA4569130002F192FA8563B20FE0F260F9130CB
:20188000002F592FA856DA009130002F592FB4069130002F392F1A06B70F01F09130002F68
:2018A000E92F1A069130002F392F2A06B70F01F09130002FE92F2A063B0000F33C05C2FF49
:2018C0004EF382123C0D9130002F392014066F10F87F9130002F392024066F10F27F084FD7
:2018E0001E13084FDE289130002F192F10068200370F82F254F03B90D03306634B30114287
:201900008B141F0037006800370F05F89130002F592F10069130002F19201806086F37F0B4
:20192000030C087F37F08704084F37F0020F9130002F592018069130002F1920280608EFFB
:2019400037F0010008AF37F0030C08BF37F087049130002F592028069130002F392F1A06EA
:2019600096019130002FE92F1A069130002F392F2A0696019130002FE92F2A063B0000F323
:201980003C05C2FF4EF382123C119130002F392014063700E100DF10F67F9130002F3920FB
:2019A00024063700E100DF10EE7F3B0000063C05C2F04E0382123C169130002F392F1406AC
:2019C000370FE1F26EF69130002F392F2406370FE1F26EEF9130002F392F2406370F61F277
:2019E0006EE89130002F39201C06088F37F003F09130002FE92F1C069130002F19202C06F0
:201A000008CF37F0030008DF37F003049130002F59202C063B0000063C05C2F04E038212FC
:201A20003C169130002F392F1406370FE1F26EF69130002F392F2406370FE1F26EEF9130AC
:201A4000002F392F2406370F61F26EE83BF0490206503C05C2F04E0382123C0C9130002FFA
:201A6000392F1006AE179130002F392F11066F0FF37F9130002F392F1A0696049130002FC2
:201A8000E92F1A069130002F392F2A0696049130002FE92F2A063B0000F33C05C2FF4EF343
:201AA00082123C0D9130002F392014066F20F87F9130002F392024066F20F27FDABC913016
:201AC000002F592FB406DA059130002F592FA006DA1D9130002F592FA076DA009130002F49
:201AE000592FB4069130002F19203006DA0137F0020EDA0137F0010F3B0000313C05C2F3BF
:201B00004E3382123C089130002F392F3306370FE1F3EEF69130002F592030063B00000102
:201B20003C05C2F04E0382123C089130002F392F3306370FE1F3EEF69130002F192F28A6F4
:201B40006F1F12008F2120F096019130002F192028A6370070088F002100A60F9130002F93
:201B6000592F28A686218F3140F19130002F192028A6370070088F002100A60F9130002F7C
:201B8000592F28A63C019130002F192F28A66F0FFC7F022F3C01EE0509F498196D008502B0
:201BA000DF0FCF8149F21C0A82029130004FD94428A6544F370F6EF18FFF83113C0191309F
:201BC000004F194F28A66F1F12008F2120F096019130004F194028A6370070088F002100F3
:201BE000A60F9130004F594F28A68F2120F096029130004F194028A6370070088F002100BC
:201C0000A60F9130004F594F28A63C019130004F194F28A61601DF1FFB7F9130004F19400E
:201C20003006488F82F3C63F26F0488F5423263FA6F03B0000313C05C2F34E3382123C0803
:201C40009130002F392F3306370FE1F3EEF69130002F592030063B0000013C05C2F04E03D6
:201C600082123C089130002F392F3306370FE1F3EEF69130002F19203406370062F2EE071A
:201C8000370062FAEE04370062FE6E369130002F1920340648AF82F3C63F26F048AF4893C8
:201CA000263FA6F0DA0037F00202DA0037F0020ADA0037F0020E3B0000313C05C2F34E3323
:201CC00082123C089130002F392F3706370FE1F3EEF69130002F592034063B0000013C0579
:201CE000C2F04E0382123C089130002F392F3706370FE1F3EEF69130002F1920340648AF1C
:201D000082F3C63F26F048AF4893263FA6F03B0000313C05C2F34E3382123C089130002FBB
:201D2000392F3706370FE1F3EEF69130002F592034063B0000013C05C2F04E0382123C0805
:201D40009130002F392F3706370FE1F3EEF69130002F192F0016370F62F66E309130002F76
:201D60001920001648CF82F3C63F26F048CF48B3263FA6F0DA0037F002063B0000313C05AA
:201D8000C2F34E3382123C089130002F392F0316370FE1F3EEF69130002F592000163B000C
:201DA00000013C05C2F04E0382123C089130002F392F0316370FE1F3EEF69130002F19206E
:201DC000001648CF82F3C63F26F048CF48B3263FA6F03B0000313C05C2F34E3382123C087E
:201DE0009130002F392F0316370FE1F3EEF69130002F592000163B0000013C05C2F04E0375
:201E000082123C089130002F392F0316370FE1F3EEF69130002F19200C1648EF82F3C63F7F
:201E200026F048EF48D3263FA6F0DA0137F0010F3B0000313C05C2F34E3382123C089130B1
:201E4000002F392F0F16370FE1F3EEF69130002F59200C163B0000013C05C2F04E03821229
:201E60003C089130002F392F0F16370FE1F3EEF69130002F1920002609FF001982F3C63FB9
:201E800026F009F3001948FF26F3A6309130002F592000269130002F192F042609F00819D6
:201EA00082F3C630260F09F0081909F304192630A60F9130002F592F04269130002F192F6A
:201EC000082609F0101982F3C630260F09F0101909F30C192630A60F9130002F592F08261E
:201EE0009130002F192F28A66F1F12008F2120F096019130002F192028A6370070088F00B0
:201F00002100A60F9130002F592F28A686218F3140F19130002F192028A6370070088F00D8
:201F20002100A60F9130002F592F28A63C019130002F192F28A66F0FFC7F022F3C01DF0FED
:201F4000B18049FC140A82089130002FD92228A6542F370F6EF18FFF83A13C0182091D00EB
:201F60009C009130002F192F28A66F1F12008F2A20F096019130002F192028A63700700819
:201F80008F002100A60F9130002F592F28A68F2A20F096029130002F192028A6370070088F
:201FA0008F002100A60F9130002F592F28A63C019130002F192F28A61601DF1FFB7F3B0069
:201FC00000063C05C2F04E0382183C089130002F392F1406370FE1F26EF69130002F3920A1
:201FE0001C06536920F0C8621022142F37F003F09130002FE92F1C069130002F192F28A60A
:202000006F1F12008F2A20F096019130002F192028A6370070088F002100A60F9130002FC5
:20202000592F28A68F2A20F096039130002F192028A6370070088F002100A60F9130002FED
:20204000592F28A63C019130002F192F28A66F0FFC7F536920F0C8621022092B0209820401
:202060006DFFD0FA9130002F392F3006160F4B0F41F14BF251F03C014BBF41F04B0F71F139
:2020800085F110013C0185F01001A2103FF0FDFFC2193709689014CF3FF965FF028F3C01B9
:2020A00002F23C0100902008144F09444108DF1F298049A4000A6DFFFAF86D005001022F53
:2020C00002F46D006000913000FF19F1200609A0C408BB00402FA62037011010913000FFD0
:2020E00059F12006913000FF19F01806821137100101913000FF59F0180602F46D006201C0
:202100000090DA018B0401000F0F10F0913000FF59FF24860090DA010F4F00F0913000FF6B
:2021200019F0208626F0760382123C0282023C0100904DC0E1FF16073C0153CF20F060FF66
:202140009130003F30F3D93F0C9654FF2E1B8F2420F0960154F0370070088F002100A60F54
:2021600074FF86248F2440F154F0370070088F002100A60F74FF3C0154FF1601DF1FFE7F71
:202180000090913000FF19FF28A66F1F12008F2420F09601913000FF19F028A637007008C9
:2021A0008F002100A60F913000FF59FF28A686248F2440F1913000FF19F028A63700700800
:2021C0008F002100A60F913000FF59FF28A63C01913000FF19FF28A61601DF1FFB7F0090B2
:2021E0004DC0E1FF16073C01913000FFD9FF0C9653CF20F010FF54FF2E1B8F2420F0960127
:2022000054F0370070088F002100A60F74FF8F2420F0960254F0370070088F002100A60F40
:2022200074FF3C0154FF1601DF1FFE7F084F96082CF454FF2E1B8F2420F0960154F0370083
:2022400070088F002100A60F74FF86248F3440F154F0370070088F002100A60F74FF3C0188
:2022600054FF6F0FFF7F0090913000FF19FF28A66F1F12008F2420F09601913000FF19F016
:2022800028A6370070088F002100A60F913000FF59FF28A68F2420F09602913000FF19F052
:2022A00028A6370070088F002100A60F913000FF59FF28A63C01913000FF19FF28A616015C
:2022C000DF1FFB7F913000FF39FF2CA69608913000FFE9FF2CA6913000FF19FF28A66F1F70
:2022E00012008F2420F09601913000FF19F028A6370070088F002100A60F913000FF59FFAF
:2023000028A686248F3440F1913000FF19F028A6370070088F002100A60F913000FF59FF8E
:2023200028A63C01913000FF19FF28A66F0FFC7F00904DC0E1FF16073C0153CF20F060FF8B
:202340009130003F30F3D93F0C9654FF370F6EF18FFF83213C013C010090913000FFD9FFD4
:2023600028A654FF370F6EF18FFF83213C013C0100904DC0E1FF16073C0153CF20F060FF83
:202380009130003F30F3D93F0C9654FF2E1B8F2420F0960154F0370070088F002100A60F12
:2023A00074FF86248F3440F154F0370070088F002100A60F74FF3C0154FF6F0FFF7F009025
:2023C000913000FF19FF28A66F1F12008F2420F09601913000FF19F028A6370070088F0088
:2023E0002100A60F913000FF59FF28A686248F3440F1913000FF19F028A6370070088F00AE
:202400002100A60F913000FF59FF28A63C01913000FF19FF28A66F0FFC7F009091000048BB
:20242000D944B08582129130002F192F34A6370F6EF18FFF83313C019150022F392F2C08D2
:202440001601DF1F7080094584093C648F2320F07BC0FF0FA60F9130002F592F34A63C01AD
:202460009130002F192F34A6370FE1F0DF1FFA7FCC513C0DD4F25420482F82F1C61F26F037
:20248000481FA6F0D4F2742049FF0C0A80F0145F53CF20104C5142F13F10EEFF9150022F34
:2024A000392F0B4896409150022FE92F0B488F2320F07BC0FF0FA60F96029130002F592F3E
:2024C00034A63C01913000FF19FF34A66F1FFC7F3B0010F0C2FF4EF382023C09915002FF42
:2024E00039F00B4837006103DF10F67F4C52BB00520C9BB0BF044B0F41F04B0F71F185F1DF
:2025000010013C0185F01001A2103FF0FDFF49550C0A8050144F53CF20104C4142F13F10C2
:2025200097FF022F3C01EE0200A0DC0B009091000028D922B8858210915002FF39FF2C08BF
:202540001601DE1C82023C0DCC2153C220F010FFD4F45441482F26F1481F3E128200C21284
:20256000142F3FF2F37FDF100A80915002FF39FF2E08370FE1F21E1282003C01F60200A00C
:20258000DC0B0090C2F437045040D44F094FC40810FF14FF345FB015094FC408C21FAC428F
:2025A000094FC4080940C6083F0F0480DA00AC42FF14EA7F40523C010090C2F437045040EA
:2025C000D44F094FC40810FF145F34FFB015094FC408C21FAC42094FC4080940C6083F0FBE
:2025E0000480DA00AC42FF14EA7F40523C0100904DC0E2FF370FE1F78B0F20023C010D00A2
:20260000400300003C018C423C010BF480F1370F50108C4B4BF10122A23137015020DA008E
:20262000894F1808A2248C4A0BF480F1894F060976030D0000033C0100904DC0E2FF370F25
:20264000E1F78B0F20023C010D00400300003C01094184083C018C4AA21F0BF480F1370FBC
:2026600050108C4B4BF10122A23137015020DA00894F1908A2248C4A0BF480F1894F0A097F
:2026800076030D0000033C010090025FC234B7040200370050808BC801008B8000406D00BD
:2026A0003410BC2640240B8F10486D0032003C0100904DC0E2FF370FE1F78B0F20123C011D
:2026C0000D00400300003C018C4212508940840809408E088C420BF0A0F1AC47094F060955
:2026E0006E0F094F0609A25F894F0609094F06094EF7DA00894F0609DA01894F1808761345
:202700000D000003A254370450203C010090C234B70402F0370F5000DA00894F1808DA0155
:20272000894F1908804F8BCF01F0C27FB70F03F0744FDA00AC42DA00AC47DA00894F0A096F
:20274000894F0609DA00AC49AC48894094088945960840423C0100902008404F405C024812
:202760008209DF08D700D4F2F4A288AFACA3888FACA291000028D922F845092040090B0655
:2027800010F10B1780F2EE0891000028D922F845092A40093C274DC0E2FF370FE1F78B0F38
:2027A00020F23C010D00400300003C013C0185F010018203020285F12C018200A620A6312F
:2027C0003C0191000028D922F84509224009262026316E030D0000033C010B6040A00B7135
:2027E00050B03C0140F402846DFF04FF022F6E0E49A4000A40C502F46DFFC6FE402C40F404
:202800000B8F10486D0089000228DF09398091000028D922F845092040090B0A10F10B1B66
:2028200080F2EE03DA003C294DC0E2FF370FE1F78B0F20F23C010D00400300003C013C0137
:2028400085F010018203020285F12C018200A620A6313C0191000028D922F8450922400905
:20286000262026316E030D0000033C010BA050F10BB100F20B1B90F23C016E05DA0089FFA9
:2028800006093C44DF0841003C0109FF5808EE3891000028D922F845092040090B0A10F13D
:2028A0000B1B80F2EE03DA003C294DC0E2FF370FE1F78B0F20F23C010D00400300003C01CE
:2028C0003C0185F010018203020285F12C018200A620A6313C0191000028D922F845092291
:2028E0004009262026316E030D0000033C010BA050F10BB100F20B1B90F23C016EC709FF78
:2029000058088B0F0092DF086FFF09AFC408ACF802823C0100904DC0E2FF370FE1F78B0FB7
:2029200020023C010D00400300003C018C42A25FAC42094F0A096E0F094F0A09A25F894FC2
:202940000A09094F0A094EF7DA00894F0A09DA01894F190876030D000003A25437045020F1
:202960003C0100902008404F405C02488209DF08D700D4F2F4A288AFACA3889FACA29100BC
:202980000028D922F845092040090B0610F10B1780F2EE0891000028D922F845092A40095C
:2029A0003C274DC0E2FF370FE1F78B0F20F23C010D00400300003C013C0185F010018203EA
:2029C000020285F12C018200A620A6313C0191000028D922F84509224009262026316E0381
:2029E0000D0000033C010B6040A00B7150B03C0140F402846DFF23FE022F6E0E49A4000A9B
:202A000040C502F46DFFDBFD402C40F40B8F10486DFF51FE0228DF09398091000028D922AB
:202A2000F845092040090B0A10F10B1B80F2EE03DA003C294DC0E2FF370FE1F78B0F20F251
:202A40003C010D00400300003C013C0185F010018203020285F12C018200A620A6313C0161
:202A600091000028D922F84509224009262026316E030D0000033C010BA050F10BB100F2FC
:202A80000B1B90F23C016E05DA0089FF0A093C44DF0841003C0109FF5908EE38910000283C
:202AA000D922F845092040090B0A10F10B1B80F2EE03DA003C294DC0E2FF370FE1F78B0FE8
:202AC00020F23C010D00400300003C013C0185F010018203020285F12C018200A620A6310C
:202AE0003C0191000028D922F84509224009262026316E030D0000033C010BA050F10BB131
:202B000000F20B1B90F23C016EC709FF59088B0F0092DF086FFF09AFC408ACF902823C01D5
:202B200000906D003A020090544F2E1B8F2400F096015440370070088F000100A60F744F5B
:202B400006248F2440F15440370070088F000100A60F744F544F0090913000FF19FF28A643
:202B60006F1F12008F2400F09601913000FF19F028A6370070088F000100A60F913000FF30
:202B800059FF28A606248F2440F1913000FF19F028A6370070088F000100A60F913000FFB6
:202BA00059FF28A6913000FF19FF28A6009002484DC0E1FF16078B5F20F33C0153CF20F0F9
:202BC00060FF9130003F30F3D93F0C9640F402846DFFACFF084F96082CF440F402846D00AC
:202BE0008A000090024802846DFFB8FF913000FF39FF2CA69608913000FFE9FF2CA6028460
:202C00006D009100009002484DC0E1FF16078B5F20F33C0153CF20F060FF9130003F30F3E4
:202C2000D93F0C9640F402846DFF80FF084FB70F81F12CF440F402846D005D000090024F21
:202C400002F46DFF8BFF913000FF39F02CA6B7008101913000FFE9F02CA602F46D00630063
:202C60000090BB00C20B9BE0CB04913000FF39FF1B06370F62F35E26BB0068199B81B91495
:202C80003C0B5E16BB0068199B81B9143C05BB00C21B9BE1CB14913000FF39FF3306370FA9
:202CA00062F26E1D913000FF39FF1906370FE7F0C21F4B0F61F14BF14110913000FF39FFEF
:202CC0001B0616079210913000FF39FF1C061607C21FE2F04B0061F14BF15100913000FF40
:202CE00039FF3006160F4B0F41F14BF051203C010090544F2E1B8F2400F09601544037004B
:202D000070088F000100A60F744F06248F3440F15440370070088F000100A60F744F544F27
:202D20000090913000FF19FF28A66F1F12008F2400F09601913000FF19F028A6370070083D
:202D40008F000100A60F913000FF59FF28A606248F3440F1913000FF19F028A637007008E4
:202D60008F000100A60F913000FF59FF28A6913000FF19FF28A60090912000303043493322
:202D8000088A543F06F4374F9FF09120003030434933088A743F9120003030434933148A7C
:202DA000543FEF8F0A00B70F01FC9120003030434933148A743F0090911000FF82505300BF
:202DC00022F010F2530022F010FF39FF1F029604E92F1F02911000F7D9FF00F09110002717
:202DE000D92200F0142FC21F34FF911000F7D9FF00F014FF911000F7D9FF3CE014F03F0F40
:202E00001180911000F7D9FF00F0DA0034FF910000F7D9FF0000DA0134FF82546D009D0F57
:202E200000903C31910000F7D9FF040091000027D9220400142FC21F34FF910000F7D9FFC3
:202E4000040014FF5E1E911000F7D9FF04F014F0DAA53E07910000F7D9FF0400DA0034FF42
:202E6000910000F7D9FF040014FF5E3D910000F7D9FF0400DA0034FF911000F7D9FF08F067
:202E8000DA0134FF8214910000F7D9FF040014FF911000F7D9FF04F010F46D008F12DF02C0
:202EA000C3FF009082346DFF2EF9911000F7D9FF00F0DA0034FF910000F7D9FF000014FF97
:202EC000EE34911000F7D9FF3CE014FFDF1F2B80911000F7D9FF28F054FFB70F1CF07B0060
:202EE000000DFE034DC0E1FF16073C01911000F7D9FF28F054F0B7000C0AB770030E7B0031
:202F00000011E21FA2F03C06911000F7D9FF28F054F0911000FFDA05530F22F010FF59F0B4
:202F20000C0282546D000B0F00908F841EF08F0F0801B70408FC3704E81BB71F812BDA7FF6
:202F40007FF1048082020090DA967F1F048082023C068B6109F1325F0FF2002037024820D8
:202F600076043252370248200090B70408FC3704E80BB71F811BDA7F3FF00580DA967F0FB8
:202F80000480820200908B6009F1325F0FF1001037017020009091100048D94448661D00EA
:202FA00002008208404F8209820A820BC81CC82D483C09FF1001DF1F238080CF160180D085
:202FC0008F100001FE046E04C2FC04DF24CF76CF8F3C00018FEC1FF06E0902F140D2C2F17F
:202FE0006014442164C1FC4E90DD020CDF0CE07FC2FC60C204DF24CFFC2E3CD9DE2580CF7D
:203000002E03C2FC24C9DF0CD37F8F3C00F106EC76C5C2FC60C264CAFC2F6EC9C2FF60F22B
:2030200024CBFC2F3CC48F0F1F00DF002E008F3F0001DF102B8080CF8F3F00D180DF1603DD
:20304000FEDB76DB02D440C440D56D00EF0601CD00C601DD00D6A2DC76CF8F3C00018FECA3
:203060001FF06E0902F140D2C2F16014442164C1FC4E90DD020CDF0C9B7F02C440C440D56B
:203080006D00D4063C9400901603DF2F91FF80CF16036E0702F440C46D00B10610CCA2FC5D
:2030A000DF0C867F8F3C004106EC76C5C2FC60C264C8FC2FDF047C7F40C46D00A0061DFF9F
:2030C00077FF0090205089A4380989A62C0989A73409DA01A00F820909AA1019780C89A994
:2030E000081989A9280902A089A90019B70089FBF80678113700E8FB78080258404C029D7E
:20310000405D8BFF0FC27B00F8B376C658116E04029C09AD30095808BA0F7813F68A3B700E
:203120000600580B3E043B7004007E0382183C23580D6F5F21803B100600580B3E043B10A6
:203140000400FE095811EE0382083C1582788F3F000082013C06C2F88FC31F107723000EBF
:203160000B011028FBF0000026202631BA008B0100F4EEF2DA00780F02A46D00140876253E
:20318000DA2D780F67AABFAFEE0E580D8F8F0101DA087E03DA2B3C068B000102580FAB0F48
:2031A000A2F0780F09A00019AA1089A00019DF0D1600580B910000F8D9FFACF510FF081F9B
:2031C0002E37910000F8D9FF2400F8063C1B910000F8D9FF0810F8063C15DF0C1D00580B7D
:2031E000910000F8D9FFACF510FF081F2E36910000F8D9FF0C103C05910000F8D9FF1010F4
:20320000F8065810BB90FF0F9239580D260F780D1D008C013B100600580B3E053B10040015
:203220005F0F27805808AB1F18FF780858109230F683580D2E22C210428058083BC0F91F59
:20324000C2207FF106003B4006103F1F0400DA033C0A3B60FF1F7FF106003BA000103F1F88
:203260000400DA02780C580C12091D005F01580849AF0A0A6E7549A4140A02A46D00FC0C79
:2032800009AC1409022A370CE8FB82006E55BBF028EC49AE130A7B0012D49B5ECFE33C3F6B
:2032A00049A20A0A7D2E0C8049AF120A49AE130AA07209F03FF489E03FF4FC2CBBD0CC0C4B
:2032C00058059BC0DC0349A4140A4B0F41406D00D30C89A20609DF0914806B0E21F24BDBBD
:2032E00041B04BDF41406DFF22FE762A4BBC514049A4140A82196D00BF0C89A2060909AF9E
:2033000006096B0E21FF4BDF41406DFF10FE8B0203F089EF3FF4580AC21F780A5805370F4D
:20332000E8FBEEBF3C0304EF24FF49A2130A012E20F4EEFA3C154B0A01F06F2F12007B00B3
:2033400012043C064B0A41A0580AC2FF780A4B0A41F089AF06094BBF01F06F0FF5FF3B6065
:203360000610580B028082093E143B6004107E13580A12803B500610580B3E143B5004104C
:203380007E12C210CE03DA003C038B7000F310A2492E0A0A3C117B0012F449A4060A4BFAA6
:2033A00041406D00690C022A09A406096DFFBFFD8B0203F024FF01FE20F4EE0649A2130AE8
:2033C000012F20F4EEE909EF000840EFC25F3C0A49AF0A0A01EF30F4EE0740EF09EF3FF4CD
:2033E000C21F34EF3C08DA3134EF49EF010A580AC21F780A09E00008DA393F0FEB7F89F911
:203400003FF049A20A0A012F20F4EE0609F00008DA305F0FF67F3B500600580BBE013B501A
:2034200004003E0E3B6006005F0F3C003B6004005F0F3800580A3FF80400FFDF3300581096
:203440003B50062049AF0A0A9210580B09A10A083E243B5004207E2C761349AF0B0A14FF8A
:20346000EE04580DAE227682C21042803C17028276158BF81F2049AF0B0A14FFEE03580DFF
:203480002E22C21082013C0814FFEE03580D2E23C210B01FC2113F21F97F8B4000903C4561
:2034A0003B600600580B3E043B6004007E0F09A02809FA10AB10A09F581042F9F684580D3A
:2034C0006F2F34001A8992193C300280580A49AF0A0A4EF4581092193C0D09A1280958108F
:2034E0001219021F14F17612B01FABF01F00C2FFEEFA14FF6E02F604580D6F2F1700580AC8
:20350000C219325F3C04C2FFC219C2F07607FF1FFC7F3C04C219B01FC2F0760314FFEEFB8A
:20352000580D16042B09009F580F6E0D580D16036E0A61FFFEE609A43C0940C46D00440472
:20354000DA00780FD806BD0F1A803B100600580B3E043B100400FE02580D16036E0F54DF53
:20356000C22F61FFD3E66D002F04580B40C48B7F01406D002904DA017812580D6F0F168077
:20358000580EA29F3C0F61FFD4E6580D40C416028B0F20F2864F8B0F02406D001504580E55
:2035A000C2FF780EFF1FF17F580F6E0861FFC1E609A43C0940C46D000704D806BCFA40F41C
:2035C00040C56D00100454DFC23F74DF1D008A013B100600580B3E053B1004005F0F9F8063
:2035E0008F28200058138B7001018B1F03A1BF1022008201DA177FF00800821258110F0254
:203600001020262F6E02821182F2C2F00F0200F0C6F2F6145811262F6E045811A62F781142
:203620005811C21F7811EF7F0600DA0078113B2003A05812EE0D54DFC22F61FF67E66D003F
:20364000C303580B40C48B7F01406D00BD0361FF70E602A440C46D00B703F683580D2E250D
:2036600061FF61E66D00B00358113B8001B054D08F1F00A0428074D03C183B000340DF0B7A
:203680001100C2CB02B032500F0A00F0160F8B0F0340DA397F4F0600580B8B6F1CF042F4C7
:2036A00040C46D009103C2F8FF18E97F580B40C48BFF00406D0088035808CEF63BD0024032
:2036C000325F78083C033BB0024040C46D007C03580C54D0C22F42F0580C820110AF34F107
:2036E0003BA00010580CC2FF370F68F0780C10AF58084B1F01228B0303F034FF09A2200964
:203700004B12012289A26009DF02EEFF74D040A440C56D0068031D00E5003B50060049AF37
:203720000A0ABE013B5004003E0E3B6006005F0F78003B6004005F0F7400580A3FF8040036
:20374000FFDF6F0009A00A08580AAB1F20A076093B700610580B3E143B7004107E12C2F877
:2037600061FFE7E576063700684049AF0B0A3C033B00034040C46D00270314FFEE0B580DEC
:20378000AE29768C3B500600580B3E043B5004007E0561FFC8E56D001703820B3C1A09F098
:2037A0000008F60A580DAE283B500610580B3E143B5004107E1D61FFBCE5760537006840DB
:2037C000B01F3C033B00034040C46D00FD02C21B3F8BE77F61FFADE5580B40C48FDF0F41C9
:2037E0006D00F202C2FA54DFC21F0EA43BB002403C04325A3BD0024074DF40C46D00E402F6
:2038000061FF89E58B00034040C46D00DD0261FF82E58B01034040C46D00D6023C6209AA8C
:2038200028094EA854DFC21F61FF70E56D00CC023C1954D0C21074D014F47643B01F3C03FF
:203840003B00034040C46D00BF023B600600580B3E063B6004003E03ABF81F88C2FAFF1A71
:20386000EA7F3B600600580B3E063B6004003E0314FF6E02F684580D6F2F340061FF59E5E5
:20388000580A3BE00240325F3C0854D03B000340C21074D0C2FFC2F840C46D009502768B58
:2038A000FF1FF57F3C0861FF44E504F440C46D008B02C2F8768314FFEEF73B600600580B04
:2038C0003E0E3B6004003E0B580D2E2B3C0854DFC21F61FF1BE56D007702C2F8DF08F9FFBF
:2038E000580EA29F3C0A54D03B00024040C4C21074D06D006902C2FFFF1FF77F0090201033
:20390000404C405D89A68C09DA00780209D40008DF045002DA257E4409D001047E08B01D5A
:2039200049A5080A40C46D0048023CF1820A0BAA108809DF01003BD002007E048F1A40A1C4
:203940003CF93BB002007E07BBF0FE0F26A08F8040A13CF03B0002007E066F3AECFF8F0A38
:2039600041A13CE83B0003007E048F2A40A13CE23B3002007E048F4A40A13CDC3BA002002B
:20398000FE03D803B04FF80309F83CF9CE848F1A40A1325809DF01003C0D13A820FF8B0F0F
:2039A0001D8009DF01008B0F1D0037006800BFA0F6FF3BE002005F0F23808F0A42A109DF45
:2039C00001003BA00200FE05D803B04FF80309F93CF9CE968F1A40F1BBF0FDAF26FA09DF5D
:2039E00001003C0D13A920FF8B0F1D9009DF01008B0F1D0037006800BFA0F6FF3BC00600C7
:203A00007E048F0A48A13C1E3B8006007E048F0A44A13C183BC004007E048F0A50A13C12DA
:203A20003BA006007E04B71A81A43C0C3BA007007E04B71A01A53C063B400700FE01B71A76
:203A400081A53BC006003E043B8006007E0709D000087E04B71A01A6B01D09DF01003B30BB
:203A600006005F0F2F808F1A00F1EE0E3C093B00024049A5080A40C46D009F01C2F87F89F8
:203A80000400FF28F67FD80340C449A5080AB04FF80309F03CF9370048406D008E01DF0FD6
:203AA000377F3C093B00024049A5080A40C46D008401C2F87F892C7FFF28F67F1DFF28FF4C
:203AC0003B400600BE013B9006003E0E3BF006003E0B3B8007003E083B8005003E053B5079
:203AE00007005F0F598082023B4006003E043B9006007E0282123B0008010F0A80105F01FF
:203B000004006F9A05003B8000003C0282403B8000105F100980D80349FF080AF80309F0EC
:203B200078F93C15D803B04FF80309F03CF90B0000080B0110483B0004010F0A80105F0100
:203B40000D807628370448000B0000080B0110483C13370468403C0F3B0004005F010B8099
:203B60007626370450000B0000483C06370470403C02F62282056F5A0600BBD0FF0F260A29
:203B80003C0282190BFA106889A440090B8910481D00CB003B300700FE066F5A0680BBF015
:203BA000FF9F9BF9FF97D8030BA8104840C5029649A6080AB04FF80309F4BCF96D00AB02F3
:203BC0001DFFA6FE3B600600BE063B600400BE033B500600BE003B5004003E0D3B70060086
:203BE0003E0A3B7004003E073B1006003E043B1004007E0DD8038F0A0211AB698091B04F71
:203C0000F80302F609F03CF974A03C2C3B200700FE086F6A0800D803B04FF80309F03CFABA
:203C20003C06D803B04FF80309F03CF98F0A02F1EA69DA004BF051F174AF3B6006603C1297
:203C40003B200500FE09D8038F0A02F1EA6949FF080AF80309F478F96DFFE8E13B6006604A
:203C600074A20B89104849A5080A02A740C46DFF2BFA1DFF4DFE3B0007005F0F5D806F8A17
:203C800045006F0A0E80DA113C093B00024049A5080A40C46D009100C2F83F8FF8FFD803CF
:203CA000A03E49FF080A09FF3FF449A5080A370F684040C46D000001FCE73BA0034049A542
:203CC000080A40C46D007900D803A03E49FF040A09FF3FF449A5080A370F684040C46D003F
:203CE000EB00FCE7DA113C093B00024049A5080A40C46D006200C2F83F8FF8FFD80349FFD4
:203D0000080AF8031DFF04FED8033B8000400245B04FF8038F2A407109F03CF9820189A01D
:203D200040093B80076049A5080A40C46D00DF001DFFEEFD3BE006005F0F37803B00080137
:203D40000F0A80F03E036F9A0E00D803B04FF80309FFBCF909A00809820189F040091DFFD5
:203D6000D7FD3B000401260ADA407EAAD803B04FF80309FFBCF95802B4FF1DFFC9FD5F0AD3
:203D80000B80D803B04FF80309FFBCF9580234FF1DFFBEFDD803B04FF80309FFBCF95802B6
:203DA00074FF1DFFB5FD911000F7DA1959FF0CF009A20809009037046840545FC21F745F4D
:203DC0001D000200D44FBCF440F41D009608CC414C4280F07FF0068034F4CC41B01FEC41D1
:203DE0000090404F405C3C06370F684040C46DFFEBFF09FF0100EEF900903BF00F00804FF5
:203E00001603063F0FF0100082FFC6F0C2F4604F804FB70F02F060F2B014542F260F742FA1
:203E200077000004FCF60090804F16033BF00F008F3F00100F10100082F1C610C2F4604FA8
:203E40008041B7010220095101008F3F0030B0140F3110106022C21F542216032602A61278
:203E6000742277000004FDF0ED7F0090404F0B4510A849FD160A026840FCDA0034DF82072F
:203E800002860BAB10486DFFBDE123820A0A0B2310A88BA060F2CA708B0003F089DF3FF413
:203EA0008B0220F28B0300F5EEEB04DF24FFEEFE40C200900248404F8FC83F40405CDA0955
:203EC0000B4F2001DA37AB0F83F042F46DFF75FF8FF8000140F4DA0940C50B0F2011DA3713
:203EE000AB0F834142041DFF68FF026E2020DA58404F0B4510A8405C027909AC6009820843
:203F00005FEF7300DA643EEDDA693EEBDA6F5FEF6C00DA75BEE4DA785FEF67001D00ED0006
:203F2000D2000B0C50F10B1D00F20BD190F2EE073BD002800BC0C0C00BD1D0D00BCD104866
:203F400040A43BA000606DFF93FFF6B6BA0C8B0D00F4DF0FDF8040A46D00DA06370268C067
:203F6000DF081180DA753EE88F890101DA087E043BB002803C078F8901F18B0F01F2AB08DC
:203F8000A28F768CABFA1FAA8F3900F16E0740F4028440C56DFF11FF82086F0914808F29C9
:203FA00000F18B0F20F2864F8B0F02F03C0740F402F440C56DFF01FFC2FA7FAB04003FAC50
:203FC000F87F768E40F4028440C56DFFF6FE3C08C2FB61FF96E16DFFF0FEABFA1FAA3FBCAC
:203FE000F97F1D008A008BFE268240A48F3820F08B8F00600BCD10486DFF3AFFDA78FEE334
:2040000014AF40A26E10092000088BF01BF0370F6810DA193F1F05808B0002F0342F092F1A
:204020000104EEF240A46D007306370268F078068B0C20F28B0D00F5EE0AF6B6DF086A8017
:204040006F296800821BBBB0FFFF26F96F291B006F191300768E61FF54E16DFFAEFEABFA97
:204060001FAA40F402E440C56DFFA7FEABFA1FAABBB0FFFF26F9DA6F7EE558063FBF030046
:20408000921B6F29090076875806C22BC22F370F68F078066F0915808F2900F18B0F20F21B
:2040A000864F8B0F02C03C0740F402C440C56DFF84FEC2FA7FAB050058063FAFF77F6F295A
:2040C0001900DF08170061FF1CE16DFF76FEABFA1FAA40F402E440C56DFF6FFEABFA1FAAB8
:2040E0003C08C2FB61FF0DE16DFF67FEABFA1FAA58063FBFF87FBBF0F74F40A4BBF0FF6F71
:2041000040F5269440C602A59BF6FF671D00030000900248404F025F405C0269406D6D0001
:20412000F705022A6F0819803C083B00024040C440D56DFF42FEC2FF3FFAF97F3FF9F77FA1
:204140003C0BC2F909F40100DF04110040C440D56DFF33FE8AFFDF09F6FF3C083B0002408E
:2041600040C4C2FF40D56DFF28FEEEF90090910000F7D9FF0800D4F291300057D955C087A1
:2041800001240046015420F4EE0891400057D955C088014530F4EE0482FF60F20090F4F410
:2041A00000908F141E2000904DC0E2FF3C010D00400300003C013C016DFFBDF002246DFF5E
:2041C00011F06DFFCCF002246DFF50F0911000F7D9FF30F06DFFD4E968224DC0E1FF8F7FA6
:2041E00000413C01911000F7D9FF30F06DFFF8E86812911000F7D9FF30F06DFF34EA74F26B
:20420000C5FF0001BCF182046DFFFCE9913000FF39FF3006160F4B0F41F14BF251F03C01BB
:204220003C01911000F7D9FF30F06CF38204BB00205C9B150050820682476D0087060090BA
:20424000DA004BF401F0370F61F16E0302423C0382023C01009020086DFFA8FF3B302C4065
:204260008205821682176D00000691000047D94414306DFF74E691000047D9441430BBF030
:20428000FF4F6DFF73E60D0000031D00C2008224822591100047D944B02091100057D955D4
:2042A00088306D0097048214821591100047D944883091100057D955A03091100067D96617
:2042C000805091000077D97718306D00A10282083C16534820F0911000F7D9FFA030D4FFC4
:2042E00010FF534820F091100027D922A030D422102254246DFFA6FF74F2C2183B0036F01F
:204300003FF8E97F8214821591100047D944A03091100057D955B83091100067D9669850BF
:2043200091000077D97730306D00720282083C16534820F0911000F7D9FFB830D4FF10FF23
:20434000534820F091100027D922B830D422102254246DFF77FF74F2C2183BC012F03FF811
:20436000E97F91100047D944B83091100057D955904091100067D966B05091000077D97753
:204380003C306D00BD0282083C16534820F0911000F7D9FF9040D4FF10FF534820F0911090
:2043A0000027D9229040D422102254246DFF4AFF74F2C218DA323FF8EA7F91100047D944C5
:2043C000904091100057D955A84091100067D966886091000077D97704706D009102911063
:2043E00000F7D9FFA06091100027D922A840D4246D00860374F2911000F7D9FFA06054FF2C
:2044000074AF91000048D944F0356D006E041DFF40FF00904DC0E2FF3C010D004003000019
:204420003C013C016DFF87EF02246DFFDBEE91000047D94414306DFF92E591000047D944B4
:204440001430BBF0FF4F6DFF91E50D0000033C013C000090DA0020084BF401F074A46F0F5C
:2044600015006744BF4F40A46D0006043702E8FB6E0754AF7B00F8036B0021FF74AF54AF58
:2044800067FFBFFF74AF3C0440A46D00F50354A200900D0000020D00000382046DFF51E57F
:2044A0008278DA010F8F00F0892F28290D00400200800D0000020D00000382046DFF41E58A
:2044C000DA0982180FF80080892828290D00400200800D0000020D00000382146DFF31E5D0
:2044E0008278DA010F8F00F0892F28290D00400200800D0000020D00000382146DFF21E55A
:20450000DA0982180FF80080892828290D00400200800D0000020D000003911000F7D9FF37
:204520002CF014FF5E336DFF49F40D00400200800D0000020D00000382046DFFEEED7624BD
:2045400082046DFFE0ED82446DFFE7ED762482446DFFD9ED0D00400200800D0000020D0019
:20456000000382146DFFD9ED762482146DFFCBED82546DFFD2ED762482546DFFC4ED0D0081
:20458000400200800D0000020D00000382346DFFC4ED762C82346DFFB6ED911000F7D9FF90
:2045A0002CF014FF5E336DFF7FF482746DFFB5ED762482746DFFA7ED0D00400200800D00EC
:2045C00000020D00000391100047D94460206DFF4FE30D00400200800D0000020D000003B8
:2045E00091100047D94460206DFF89E30D00400200800D0000020D00000391100047D9446B
:2046000060206DFFDBE30D00400200800D0000020D00000391100047D94454606DFF28E3D2
:204620000D00400200800D0000020D00000391100047D94454606DFF62E3911000F7D9FFB2
:204640002CF014FF5E336DFFEEF30D00400200800D0000020D00000391100047D9445460A6
:204660006DFFACE30D00400200800D0000020D00000391100047D94448A06DFFF9E20D0010
:20468000400200800D0000020D00000391100047D94448A06DFF33E30D00400200800D00EE
:2046A00000020D00000391100047D94448A06DFF85E30D00400200800D0000020D00000339
:2046C00091100047D9447CD06DFFD2E20D00400200800D0000020D00000391100047D94476
:2046E0007CD06DFF0CE30D00400200800D0000020D00000391100047D9447CD06DFF5EE327
:204700000D0040020080C234B70402F06E659249DF096300911000F7D9FF24F054FFEE1554
:2047200082046DFF26FD802F325F160392446DFF20FD8020DFF051001022F4F291100047EC
:20474000B54220F082007420D4FC820A3C0310CCB0FC54CF6E036F0FFCFFF4FC3C1DB70804
:2047600001F010CF6F08188054FFEE1182046DFF00FD49F4040A7D420F80325802846DFF04
:20478000F8FC802F1EF874CA82083C0CAE0442F874C840CF40FC54C876856F08E2FF3F9897
:2047A000E0FFDF082680BF19180002946DFFE1FC802F9EF249CF040A01F220F4EE0D012F27
:2047C00030F4EE12802F325F1603102F92446DFFD0FC802F5EF3A002009001CF2020802F1E
:2047E000960174CF40FC01C900F674FA3C0A9A493FF8078001C900F6A29874F83C0202895F
:204800008F1940F174CF49C2040A0090201802474C5278054C5378044C54780309430C09A0
:20482000094410094C62780109660C0909681009DA0078023C5F82093C57820A3C51820B2A
:2048400009A004095802E2F0E260E280820C3C2F820D3C2ADA0074AF3C23733C0AE0037973
:204860000A1D54AF035A0A2F03410AF2034E0A2F736C0AF054A1038D0A11038F0A11420145
:20488000534220F0D44F10FF54F2534120F0D46F10FF54FF6BF261BB54A1C21174A154A167
:2048A0003F81DD7FC21D3F6DD77FC21C58013FFCD17F09A010095802E2F0580303F90A1AD0
:2048C00003F00AF1534F20F0D45F10FF5802534F20F01072542F6B0F21FB74FFC21A5803A5
:2048E0003FFAAF7FC21958043FF9A97F5802C21F780209A014093F0FA07F0090202089A4D5
:20490000980989A5940989A69C0989A79009D8074838484982404B0801024B0041416DFF4D
:204920009BFD4B02315182404B08012282071D00AE0053472000E290534720F0C21F739FBB
:204940000A10534720F0C22F739F0A40534720F0C23F739F0A60534020F0D807D4FF10F2C8
:20496000534120F0D807D4FF10F4534420F0D807D4FF10F5534620F0D807D4FF10F6534784
:2049800020F0534F20F0D805D4FF10F7534720F0534F20F0D805D4FF10FCB04C534720F0E0
:2049A000534F20F0D805D4FF10FF49FD080A534720F0534F20F0D805D4FF10FF49FE0C0AB6
:2049C000534720F0534F20F009A39009103FF803534720F0534F20F0103FB04FF4AF534705
:2049E00020F0534F20F0103F49FF080AF802534720F0534F20F0D80410FF49FF0C0AF801B4
:204A0000D806D4FFDA00747FDA0074CFDA0074DFDA0074EF82043C1F542F54F054716B0FAA
:204A200061F1747F544F54F054C16B0F61F174CF545F54F054D16B0F61F174DF546F54F0E4
:204A400054E16B0F61F174EFB042B044B045B046B04FC2143F94E27F547FD80354F06B00BB
:204A600021FF747F54CFD4AF54F06B0021FF74CF54DFD80254F06B0021FF74DF54EFD80120
:204A800054F06B0021FF74EFC2173F57547F82013C335A18C2FFE29F534F20F0D807D4FF98
:204AA00010F2534820F0D80554F0420F53412000A20F60F4B0C4534820F0D80410FF534180
:204AC00020F0325F10F5B0C5D806D4FFDA00744FDA003C0A542054F454456B406105744033
:204AE000B042B04FC21F3F9FF77F544F54506B0021FF744FC2113F31CE7F009054418202C2
:204B00004C414B1F0100370061F16E040941040982124C424B1F0100370061F16E04094179
:204B2000080982224C434B1F0100370061F16E0409410C0982324C444B1F0100370061F134
:204B40006E040941100982424C454B1F0100370061F16E040941140982524C464B1F01F09D
:204B6000370F61F16E040941180982624C474B1F01F0370F61F16E0409411C0982724C48ED
:204B80004B1F01F0370F61F16E05094120093B8000204C494B1F01F0370F61F16E033B909D
:204BA00000203C0100904B4501F0370F61F16E0202544B4601F0370F61F16E0202644B47A7
:204BC00001F0370F61F16E02027402423C010090201089A4080989A50409404C405F482F0A
:204BE00078034838484909CA0C0909CB1009820C3C3E820D3C39820E3C3473AC0A005801C6
:204C000073FE0A105802E2DF03BF0AF103B00A2F738C0A00039D0A1E03900A0174A053422D
:204C200020F0D4C2102254249A12534F20F0D4C2102254251AB2534F20F0D4C210225426C5
:204C40001AB2C21F534F20F0D4C2102254276DFFACFF54AF534F20F0D4F210227422C21E78
:204C60003F9ECD7FC21D3F8DC87FC21C58033FFCC27F0090024F370FE81B8F1F1E00DAFF95
:204C80007E17024F7444B70F89FB6E123C0B8FF00150DA7F7FF10900DA00B70F81FFA65F9E
:204CA000744F02420090DA963FF10A007444DA00B70F81FF8FF00120A6F20090B704890BC4
:204CC0008F71012082F38B6109110F1300302630B700890BA652A60274426B0231F4B70F97
:204CE000812FA652009020104045910000F7D9FF0C0049F2140AF4A249A6100A40A46DFF13
:204D000000F609FFE4081640AAF20090404F044FEEFF01F420F080F2C2F200902010F4A4D5
:204D200089A4040989A5880991000048D944F4356DFFDBFF3C013C000090911000FF5344D5
:204D400020F010F2534420F010FF39FFC2819601E92FC2810090911000FF534420F010F245
:204D6000534420F010FF39FFC2819602E92FC2810090BB00FEFF26F4DA005F4F3200DA40D9
:204D80005F4F34003B0014F05F4F35003B0016F05F4F36003B001AF05F4F37003B001CF079
:204DA0005F4F38003B001EF05F4F39003B0028F05F4F3A003B002AF05F4F3B003B002CF00D
:204DC0005F4F3C003B002EF05F4F3D003B0040F05F4F3E003B0042F05F4F3F003C429140A5
:204DE000002FD922000A3C3E9140002FD922008A3C399140002FD922808A3C349140002F96
:204E0000D92280CA3C2F9140002FD922C04A3C2A9140002FD922C08A3C259140002FD922D6
:204E2000C0CA3C209140002FD922400B3C1B9140002FD922404B3C169140002FD922408B51
:204E40003C119140002FD92240CB3C0C9140002FD922000C3C079140002FD922004C3C02E8
:204E60003C013C0100900B451088026ADF091280DA003E76DA013E76DA023E763C07DA0090
:204E80003C07DA103C05DA083C03DA103C013C08DA043E723C03DAC03C03DA803C01028455
:204EA0006DFF69FF8FF80141402402F56DFFABE102846DFF60FF8FF80141820540246DFF91
:204EC000D4E1DF19198076AC02846DFF54FF8FF801F182100FF01000892004093C0C028487
:204EE0006DFF49FF8FF801F17B1000000FF01000892004090090024F8204370F68506D0063
:204F0000490202F23C010090DA003E48DA013E4BDA023E4EDA03BE413C1591100027D92269
:204F200060203C1291100027D92254603C0D91100027D92248A03C0891100027D9227CD0E5
:204F40003C03A0023C01009020200B5410880B6710A84DC0E2FF370FE1F78B0F20C23C017D
:204F60000D00400300003C013C01370948406DFFF3D991100047D944B01040256DFFEEDD06
:204F800002946D00300202946D00BF02911000F7D9FFB010DA04ACF4911000F7D9FFB0103A
:204FA0004B0861F16CF1911000F7D9FFB010DA072CFAA00FF4AFA00FF80449A4180A49A5BE
:204FC000080A0B9A104802B66D002000DA102CACDA8089AF1C08DA0089AF1D08911000F736
:204FE000D9FFB01049A2000AE8A202946DFF8EFF91100057D955B01040246DFF67DB02CF42
:205000006E030D0000030090DA003E4CDA015F4F4100DA025F4FD900DA035F4F3B011D000A
:20502000B801F658910000F8D9FF341080FF744F3C1CDF150980910000F8D9FF042080FFA9
:20504000744F3C13DF250980910000F8D9FF142080FF744F3C0ADF350980910000F8D9FF96
:20506000242080FF744F3C01DF460980910000F8D9FF141080FF745F3C0ADF560980910053
:2050800000F8D9FF241080FF745F3C011D008101DF650980910000F8D9FF589580FF744F81
:2050A0003C52DF750980910000F8D9FF689580FF744F3C49DA087E58910000F8D9FF78953A
:2050C00080FF744F3C40DA097E58910000F8D9FF48A580FF744F3C37DA0A7E58910000F813
:2050E000D9FF58A580FF744F3C2EDA0B7E58910000F8D9FF68A580FF744F3C25DA0C7E58A7
:20510000910000F8D9FF78A580FF744F3C1CDA0D7E58910000F8D9FF48B580FF744F3C13CB
:20512000DA0E7E58910000F8D9FF58B580FF744F3C0ADA0F7E58910000F8D9FF68B580FFFF
:20514000744F3C01DA137E68910000F8D9FF342080FF745F3C37DA147E68910000F8D9FFCD
:20516000043080FF745F3C2EDA157E68910000F8D9FF143080FF745F3C25DA127E689100AF
:2051800000F8D9FF243080FF745F3C1CDA117E68910000F8D9FF688580FF745F3C13DA1691
:2051A0007E68910000F8D9FF788580FF745F3C0ADA107E68910000F8D9FF489580FF745FB3
:2051C0003C011D00E600DA177E58910000F8D9FF48D580FF744F3C2EDA187E58910000F84D
:2051E000D9FF58D580FF744F3C25DA197E58910000F8D9FF68D580FF744F3C1CDA1A7E583C
:20520000910000F8D9FF78D580FF744F3C13DA1B7E58910000F8D9FF48E580FF744F3C0A6E
:20522000DA1C7E58910000F8D9FF58E580FF744F3C01DA207E68910000F8D9FF78B580FF98
:20524000745F3C25DA1E7E68910000F8D9FF48C580FF745F3C1CDA1F7E68910000F8D9FFE4
:2052600058C580FF745F3C13DA217E68910000F8D9FF68C580FF745F3C0ADA1D7E689100FB
:2052800000F8D9FF78C580FF745F3C011D008100DA227E58910000F8D9FF78F580FF744FF2
:2052A0003C49DA237E58910000F8D9FF880580FF744F3C40DA247E58910000F8D9FF980518
:2052C00080FF744F3C37DA257E58910000F8D9FFA80580FF744F3C2EDA267E58910000F82B
:2052E000D9FFB80580FF744F3C25DA277E58910000F8D9FF881580FF744F3C1CDA287E582F
:20530000910000F8D9FF981580FF744F3C13DA297E58910000F8D9FFA81580FF744F3C0A6F
:20532000DA2A7E58910000F8D9FFB81580FF744F3C01DA2C7E68910000F8D9FF68E580FFCD
:20534000745F3C25DA2D7E68910000F8D9FF78E580FF745F3C1CDA2F7E68910000F8D9FF74
:2053600048F580FF745F3C13DA2B7E68910000F8D9FF58F580FF745F3C0ADA2E7E6891009F
:2053800000F8D9FF68F580FF745F3C013C010090200834A5DA01ACA16DFFB8FD49A5000A42
:2053A00049A6020A910000F8D9FFF84509F4400940246DFF86DD0090024F404F02F46DFF09
:2053C000A5FD40246DFF7DD98E2A02F46DFF9EFD40246DFF5ED934F282123C0382023C018F
:2053E0000090DA003E4CDA015F4F2B00DA025F4F4900DA035F4F67001D008600911000F705
:20540000D9FFB01091100027D9227030E8C2911000F7D9FFB01091100027D9227C20E8E28E
:20542000911000F7D9FFB010DA8089FFAE08911000F7D9FFB010DA1089FFB4083C64911005
:2054400000F7D9FFB01091100027D9226470E8C2911000F7D9FFB01091100027D9227060B9
:20546000E8E2911000F7D9FFB010DA8089FFAE08911000F7D9FFB010DA1089FFB4083C43BD
:20548000911000F7D9FFB01091100027D92258B0E8C2911000F7D9FFB01091100027D92274
:2054A00064A0E8E2911000F7D9FFB010DA8089FFAE08911000F7D9FFB010DA1089FFB408F8
:2054C0003C22911000F7D9FFB01091100027D9224CF0E8C2911000F7D9FFB010911000279D
:2054E000D92258E0E8E2911000F7D9FFB010DA8089FFAE08911000F7D9FFB010DA1089FF45
:20550000B4083C010090DA003E4BDA015F4F2600DA025F4F4000DA035F4F5A003C759110EF
:2055200000F7D9FFB010DA0A89FFA008911000F7D9FFB010DA0B89FFA208911000F7D9FF11
:20554000B010DA0C89FFA408911000F7D9FFB010DA0089FF26083C67911000F7D9FFB010DE
:20556000DA0D89FFA008911000F7D9FFB010DA0E89FFA208911000F7D9FFB010DA0F89FF29
:20558000A408911000F7D9FFB010DA0089FF26083C4A911000F7D9FFB010DA1089FFA008CF
:2055A000911000F7D9FFB010DA1189FFA208911000F7D9FFB010DA1289FFA408911000F7B6
:2055C000D9FFB010DA0089FF26083C2D911000F7D9FFB010DA1389FFA008911000F7D9FF7D
:2055E000B010DA1489FFA208911000F7D9FFB010DA1589FFA408911000F7D9FFB010DA006E
:2056000089FF26083C10DA006E023C0D91000048D944CC453BF0054091000058D955C05552
:065620006DFF7EFB00900F
:20562800000700F000AB03F00A00000004000000000700F000C103F00D0000000500000002
:20564800000700F000A203F00300000006000000000700F000A203F002000000900000008F
:20566800000700F000AB03F00C00000090000000000700F000AE03F00A000000A0000000AF
:20568800000700F000AF03F00000000090000000000700F000AF03F00100000090000000AF
:2056A800000700F000AF03F00400000090000000000700F000AF03F0050000009000000087
:2056C800000700F000B403F00A00000090000000000700F000C103F00C0000009000000043
:2056E800000700F000C103F00D00000090000000000800F000AE03F00300000000000000BE
:20570800000800F000A203F00100000001000000000800F000AA03F0060000000300000054
:20572800000800F000C103F00800000004000000000800F000A203F0000000000600000016
:20574800000800F000A203F00000000090000000000800F000AA03F00500000090000000FA
:20576800000800F000AE03F00200000090000000000800F000AE03F00300000090000000CA
:20578800000800F000C103F00800000090000000000800F000C103F0090000009000000078
:2057A800000900F000AF03F00700000000000000000900F000B403F003000000020000009A
:2057C800000900F000C003F00200000003000000000900F000A003F001000000040000007F
:2057E800000900F000B503F00600000005000000000900F000A003F00000000098000000D1
:20580800000900F000A003F00100000090000000000900F000AF03F0060000009000000032
:20582800000900F000AF03F00700000090000000000900F000B403F00000000090000000FE
:20584800000900F000B403F00300000090000000000900F000B503F00700000090000000D5
:20586800000900F000C003F00200000090000000000900F000C003F00300000090000000A3
:20588800000600F000000000000700F001000000000800F002000000000900F0030000001C
:2058A800000A00F004000000000B00F005000000000C00F006000000000D00F007000000DC
:2058C800000E00F008000000000F00F009000000000A2CF00A000000000B2CF00B00000050
:2058E800002A00F000000000002B00F001000000608124F002388700FFFFFFFF648124F0BF
:2059080066D00000FFFFFFFF688124F002380700FFFFFFFF6C8124F026980000FFFFFFFF58
:20592800248124F0C9000000FFFFFFFF088124F001003630FFFFFFFF0C8124F00807690BBD
:20594800FFFFFFFF288124F08E042101FFFFFFFF488124F0B6730835FFFFFFFF4C8124F0B6
:20596800466C9402FFFFFFFF088124F002003630FFFFFFFF108124F03B033600FFFFFFFFC5
:20598800148124F01008690BFFFFFFFF508124F00E710834FFFFFFFF548124F0446C940203
:2059A800FFFFFFFF188124F009003600FFFFFFFF1C8124F00808690BFFFFFFFF208124F015
:2059C800941C2300FFFFFFFF588124F0B622081BFFFFFFFF5C8124F0466C9402FFFFFFFFD7
:2059E8002C8124F034040000FFFFFFFF308124F0825A0000FFFFFFFF348124F00909071219
:205A0800FFFFFFFF08000000F8580080ACC5A7370200000058590080ACC5A7370D000000CC
:205A280070590080ACC5A737030000000C5A008016000000405A0080608124F002388700F7
:205A4800FFFFFFFF648124F066D00000FFFFFFFF688124F002380700FFFFFFFF6C8124F0DC
:205A680026980000FFFFFFFF248124F0C9000000FFFFFFFF0C8124F00807690BFFFFFFFFC6
:205A8800288124F08E042101FFFFFFFF488124F0B6730835FFFFFFFF4C8124F0466C940229
:205AA800FFFFFFFF088124F002003630FFFFFFFF108124F03B033600FFFFFFFF148124F023
:205AC8001008690BFFFFFFFF508124F00E710834FFFFFFFF548124F0446C9402FFFFFFFF6F
:205AE800188124F009003600FFFFFFFF1C8124F00808690BFFFFFFFF208124F0941C2300FD
:205B0800FFFFFFFF588124F0B622081BFFFFFFFF5C8124F0466C9402FFFFFFFF2C8124F0A7
:205B280034040000FFFFFFFF308124F0825A0000FFFFFFFF348124F009090712FFFFFFFF9C
:205B4800010102030405060608080A0A0C0C0C0F0000003F0000803F0000A03F0000C03FEE
:205B68000000004000002040002D31010100001D0500001F0101000017B75139030000007F
:205B8800D85B008013012307FF0FFF0F12021121BF0F3F3F011200000F3F000032000000CB
:205BA800FF000000000000003F000000000000003F000000000000003F000000CC5B00807A
:0E5BC800D45B00800000000000000000000020
:125BD800030017B7D138020017B7D138010017B7D13830
:205BEC0000020202020202020202030101010102020202020202020202020202020202025E
:205C0C00020440404040404040404040404040404020202020202020202020404040404032
:205C2C00404088888888888808080808080808080808080808080808080808084040404008
:205C4C00404090909090909010101010101010101010101010101010101010104040404018
:205C6C00020000000000000000000000000000000000000000000000000000000000000016
:205C8C000000000000000000000000000000000000000000000000000000000000000000F8
:205CAC000000000000000000000000000000000000000000000000000000000000000000D8
:205CCC000000000000000000000000000000000000000000000000000000000000000000B8
:015CEC0000B7
:195CF00025640A00415353455254494F4E3A2025732025642025730A00F3
:205D0C002E2E2F4C69627261726965732F7365656B667265655F6C69627261726965732F8B
:0A5D2C007A665F756172742E6300E1
:205D3800FFFFFFFFFFFFFF7F756172745F7365745F696E746572727570745F7072696F7295
:205D580069747900913000FFD9FF0C9654FF370F6EF18FFF83813C01913000FFD9FF28A66E
:205D780054FF370F6EF18FFF83913C01913000FFD9FF0C9654FF2E1B8F2800F0960154F0DC
:205D9800370070088F000100A60F74FF8F2800F0960254F0370070088F000100A60F74FF9A
:205DB80054FFDA00B70F81F0CDCF20090D00C0040D00C004DA00B70F81F0CD0F04090D00F9
:205DD800C0040D00C00491000000D900000091000080D988000091000090D9990000910016
:205DF80000F8D9FF004080FFCD4FE20F0D00C004910003F8D9FF000E80FFCD0FE20F0D0053
:205E1800C004914000F7D9FF80C980FFCD8FE20F0D00C004913000FFD9FF0C9654FF2E1B4A
:205E38008F2800F0960154F0370070088F000100A60F74FF8F2800F0960354F0370070082E
:205E58008F000100A60F74FF54FF9130004FD9440C9602846DFFA1E602946DFFB9E66DFFCA
:205E780056E602946DFFE1E69130004FD9440C9602846DFFBEE6910000F8D9FF1694DC0FAA
:025E9800009078
:205E9C0091000010D91100003B0098F0CD4FE00F0D00C004913000FF19FF10167BD038013A
:205EBC0026F07603DA003C248FBF0F01BF10138016FB913000FF19F018160F0FB0F18BFFEC
:205EDC0001F1061F570062FF5E23DA013C02DA003C0FEF4F0400DA013C0B911088FF19FF74
:205EFC00000D370FE2F06E03DA013C02DA003C011E17910000F8D9FFE8C5DC0F3C069100BF
:0A5F1C0000F8D9FFCCD5DC0F00908F
:205F2800910000F8D9FF5C022D0F2000910000F8D9FF6E422D0F2000910000F8D9FFD0F5AB
:205F4800DC0F0090914000A7D9AA40890D008004914000F7D9FFC00991400027D922C00B42
:205F6800A004802080FFA2F0DA404BF0114282003C1E80FFB70F1CF08F4F1F1080FFBBF0B8
:205F8800FF2F0662262F06AFA6F1F606CD81E30F0D00C0043C0274419AD47E05CDC1E30F51
:205FA8000D00C00440F449FF001AC2103F40E3FFDA00744F0D0080040D00C004910000F8B7
:205FC800D9FF2C26DC0F0090914000A7D9AA40890D008004914000F7D9FFC009914000275E
:205FE800D922C00BA004802080FFA2F0DA404BF0114282003C1E80FFB70F1CF08F4F1F109C
:2060080080FFBBF0FF2F0662262F06AFA6F1F606CD81E30F0D00C0043C0274419AD47E0526
:20602800CDC1E30F0D00C00440F449FF001AC2103F40E3FFDA00744F0D0080040D00C0043F
:20604800910000F8D9FF1416DC0F0090913000FFD9FF0C9654FF370F6EF18FFF83413C0171
:20606800913000FFD9FF28A654FF370F6EF18FFF83F13C019130004FD9440C966DFF37E623
:2060880002F46DFF4CE691000048D944B0D56DFF6EDBDF12038000A0910000F8D9FF2C266D
:2060A800DC0F0090910000F8D9FF3826DC0F00909120884F910003FAD9FF008080F46DFFD5
:0E60C80059E6910000F8D9FFDC55DC0F00907E
:0660D8006DFF5FE7009080
:2060E000007E037000040170000401700000000050000000090000005004017050040170E2
:2061000000000000500000000A000100000000000000000000000000FFFFFFFF0600020020
:2061200000000000000000000000000000000000000000000000000000000000000000005F
:2061400000000000000000000000000000000000000000000000000000000000000000003F
:2061600000000000000000000000000000000000000000000000000000000000000000001F
:206180000000000000000000000000000000000000000000000000000000000000000000FF
:2061A00000000000000000000000000000000000C746B03EE3A5DBBD7E1801BE000000006F
:2061C000FF40393D000000007F6A3C3E863856BD736811BDC364AA3BB37BF23B29CB903D05
:2061E0006FF0053D1EA7E8BC728A8EBC9487053D04E78CBBB9FC07BC93A9823DC3642ABB41
:2062000096210EBD1B2F5DBC728A8E3C62A1D63CCA5441BD2E9020BD96438BBCAAF152BD3D
:20622000F085C93C787AA5BC5F294BBC5BD33CBDEEEB40BD8FC2F5BB787AA5BCF4FDD43BB1
:206240004260E5BC99BB963D17B751396F1283BDC0EC1EBC516B1ABD8C4A6A3DDE718A3C10
:20626000637F593DA69BC43A0F0B353DF931E63CC0EC1E3CEA95B2BC6F1203BA022B873C6E
:206280001B2F5D3DB6F3FD3C304C26BD24977F3C89D2DEBC143FC63C26E483BC696F70BDCB
:2062A000AEB6E2BD07F096BDA69B04BEB7D1003E705F873D0E2D32BD62A1563C64CCDDBDAC
:2062C000E02D903B00000000000000000000000000000000000000000000000000000000E6
:2062E00000000000000000000000000000000000000000000000000000000000000000009E
:2063000000000000000000000000000000000000000000000000000000000000000000007D
:2063200000000000000000000000000000000000000000000000000000000000000000005D
:2063400000000000000000000000000000000000000000000000000000000000000000003D
:2063600000000000000000000000000000000000000000000000000000000000000000001D
:206380000000000000000000000000000000000000000000000000000000000000000000FD
:2063A0000000000000000000000000000000000000000000000000000000000000000000DD
:2063C0000000000000000000000000000000000000000000000000000000000000000000BD
:2063E00000000000000000000000000000000000000000000000000000000000000000009D
:2064000000000000000000000000000000000000000000000000000000000000000000007C
:2064200000000000000000000000000000000000000000000000000000000000000000005C
:2064400000000000000000000000000000000000000000000000000000000000000000003C
:2064600000000000000000000000000000000000000000000000000000000000000000001C
:206480000000000000000000000000000000000000000000000000000000000000000000FC
:2064A0000000000000000000000000000000000000000000000000000000000000000000DC
:2064C0000000000000000000000000000000000000000000000000000000000000000000BC
:2064E00000000000000000000000000000000000000000000000000000000000000000009C
:2065000000000000000000000000000000000000000000000000000000000000000000007B
:2065200000000000000000000000000000000000000000000000000000000000000000005B
:2065400000000000000000000000000000000000000000000000000000000000000000003B
:2065600000000000000000000000000000000000000000000000000000000000000000001B
:206580000000000000000000000000000000000000000000000000000000000000000000FB
:2065A0000000000000000000000000000000000000000000000000000000000000000000DB
:2065C0000000000000000000000000000000000000000000000000000000000000000000BB
:2065E0000000000000000000000000001EA7A83E5EBA393FB29D1F3F6B9A173F7CF2703E3C
:20660000BC96103E00000000000000000000000000000000000000000000000000000000DA
:2066200000000000000000000000000000000000000000000000000000000000000000005A
:2066400000000000000000000000000000000000000000000000000000000000A4DF5E3F1A
:2066600069007F3F69007F3F69007F3F69007F3F13F2713FB4C8463FB4C8463FB4C8463FC6
:20668000B4C8463FB4C8463FB4C8463FB4C8463FB4C8463FDAAC2A3F29CB503E0000000084
:2066A0000000000000000000000000000000000000000000000000000000000000000000DA
:2066C0000000000000000000000000009D80863E4BEAE43EBC96903E4BEAE43E9CA2233F6B
:2066E00026E4633F69007F3FF7E4613F69007F3F69007F3F69007F3F7FFB7A3F54E3653FC9
:2067000069007F3F69007F3F448B0C3F000000000000000000000000000000000000000011
:20672000000000000000000000000000000000000000000000000000000000000000000059
:2067400000000000000000000000000000000000029A883D6F81843ED3DE603D9D80863EF7
:206760009D80863E9D80863E1FF46C3E55C1A83D91ED6C3F69007F3FA1D6D43E00000000C6
:206780000000000000000000000000000000000000000000000000000000000000000000F9
:2067A0000000000000000000000000000000000000000000000000000000000000000000D9
:2067C00000000000000000000000000000000000000000000000000000000000F0A7A63E3E
:2067E000D2007E3F4ED1513FBC96903D00000000000000000000000000000000000000003C
:20680000000000000000000000000000000000000000000000000000000000000000000078
:20682000000000000000000000000000000000000000000000000000000000000000000058
:2068400000000000000000000EBEB03D3EE8693F0000803FF0A7A63E000000000000000077
:20686000000000000000000000000000000000000000000000000000000000000000000018
:206880000000000000000000000000000000000000000000000000000000000000000000F8
:2068A000000000000000000000000000000000000000000000000000AA82013F69007F3F45
:2068C000C0EC6E3FD7A3303E00000000000000000000000000000000000000000000000077
:2068E000000000000000000000000000000000000000000000000000000000000000000098
:20690000000000000000000000000000000000000000000000000000000000000000000077
:20692000000000001FF46C3EE7FB793F69007F3F35EF783E000000000000000000000000FF
